{
  "_format": "hh-sol-artifact-1",
  "contractName": "CustomDex",
  "sourceName": "contracts/CustomEx.sol",
  "abi": [
    {
      "inputs": [],
      "stateMutability": "nonpayable",
      "type": "constructor"
    },
    {
      "inputs": [],
      "name": "_historyIndex",
      "outputs": [
        {
          "internalType": "uint256",
          "name": "",
          "type": "uint256"
        }
      ],
      "stateMutability": "view",
      "type": "function"
    },
    {
      "inputs": [],
      "name": "getAllHistory",
      "outputs": [
        {
          "components": [
            {
              "internalType": "uint256",
              "name": "historyId",
              "type": "uint256"
            },
            {
              "internalType": "string",
              "name": "tokenA",
              "type": "string"
            },
            {
              "internalType": "string",
              "name": "tokenB",
              "type": "string"
            },
            {
              "internalType": "uint256",
              "name": "inputValue",
              "type": "uint256"
            },
            {
              "internalType": "uint256",
              "name": "outputValue",
              "type": "uint256"
            },
            {
              "internalType": "address",
              "name": "userAddress",
              "type": "address"
            }
          ],
          "internalType": "struct CustomDex.History[]",
          "name": "",
          "type": "tuple[]"
        }
      ],
      "stateMutability": "view",
      "type": "function"
    },
    {
      "inputs": [
        {
          "internalType": "string",
          "name": "tokenName",
          "type": "string"
        },
        {
          "internalType": "address",
          "name": "_address",
          "type": "address"
        }
      ],
      "name": "getBalance",
      "outputs": [
        {
          "internalType": "uint256",
          "name": "",
          "type": "uint256"
        }
      ],
      "stateMutability": "view",
      "type": "function"
    },
    {
      "inputs": [
        {
          "internalType": "string",
          "name": "tokenName",
          "type": "string"
        },
        {
          "internalType": "address",
          "name": "_address",
          "type": "address"
        }
      ],
      "name": "getEthBalance",
      "outputs": [
        {
          "internalType": "uint256",
          "name": "",
          "type": "uint256"
        }
      ],
      "stateMutability": "view",
      "type": "function"
    },
    {
      "inputs": [
        {
          "internalType": "string",
          "name": "tokenName",
          "type": "string"
        }
      ],
      "name": "getName",
      "outputs": [
        {
          "internalType": "string",
          "name": "",
          "type": "string"
        }
      ],
      "stateMutability": "view",
      "type": "function"
    },
    {
      "inputs": [
        {
          "internalType": "string",
          "name": "tokenName",
          "type": "string"
        }
      ],
      "name": "getTotalSupply",
      "outputs": [
        {
          "internalType": "uint256",
          "name": "",
          "type": "uint256"
        }
      ],
      "stateMutability": "view",
      "type": "function"
    },
    {
      "inputs": [
        {
          "internalType": "uint256",
          "name": "",
          "type": "uint256"
        }
      ],
      "name": "histories",
      "outputs": [
        {
          "internalType": "uint256",
          "name": "historyId",
          "type": "uint256"
        },
        {
          "internalType": "string",
          "name": "tokenA",
          "type": "string"
        },
        {
          "internalType": "string",
          "name": "tokenB",
          "type": "string"
        },
        {
          "internalType": "uint256",
          "name": "inputValue",
          "type": "uint256"
        },
        {
          "internalType": "uint256",
          "name": "outputValue",
          "type": "uint256"
        },
        {
          "internalType": "address",
          "name": "userAddress",
          "type": "address"
        }
      ],
      "stateMutability": "view",
      "type": "function"
    },
    {
      "inputs": [
        {
          "internalType": "string",
          "name": "tokenName",
          "type": "string"
        }
      ],
      "name": "swapEthToToken",
      "outputs": [
        {
          "internalType": "uint256",
          "name": "",
          "type": "uint256"
        }
      ],
      "stateMutability": "payable",
      "type": "function"
    },
    {
      "inputs": [
        {
          "internalType": "string",
          "name": "tokenName",
          "type": "string"
        },
        {
          "internalType": "uint256",
          "name": "_amount",
          "type": "uint256"
        }
      ],
      "name": "swapTokenToEth",
      "outputs": [
        {
          "internalType": "uint256",
          "name": "",
          "type": "uint256"
        }
      ],
      "stateMutability": "nonpayable",
      "type": "function"
    },
    {
      "inputs": [
        {
          "internalType": "string",
          "name": "srcTokenName",
          "type": "string"
        },
        {
          "internalType": "string",
          "name": "destTokenName",
          "type": "string"
        },
        {
          "internalType": "uint256",
          "name": "_amount",
          "type": "uint256"
        }
      ],
      "name": "swapTokenToToken",
      "outputs": [],
      "stateMutability": "nonpayable",
      "type": "function"
    },
    {
      "inputs": [
        {
          "internalType": "string",
          "name": "",
          "type": "string"
        }
      ],
      "name": "tokenInstanceMap",
      "outputs": [
        {
          "internalType": "contract ERC20",
          "name": "",
          "type": "address"
        }
      ],
      "stateMutability": "view",
      "type": "function"
    },
    {
      "inputs": [
        {
          "internalType": "uint256",
          "name": "",
          "type": "uint256"
        }
      ],
      "name": "tokens",
      "outputs": [
        {
          "internalType": "string",
          "name": "",
          "type": "string"
        }
      ],
      "stateMutability": "view",
      "type": "function"
    }
  ],
  "bytecode": "0x60806040526040518061010001604052806040518060400160405280600a81526020017f546574686572205553440000000000000000000000000000000000000000000081525081526020016040518060400160405280600381526020017f424e42000000000000000000000000000000000000000000000000000000000081525081526020016040518060400160405280600881526020017f50415820436f696e00000000000000000000000000000000000000000000000081525081526020016040518060400160405280600581526020017f737445544800000000000000000000000000000000000000000000000000000081525081526020016040518060400160405280600481526020017f54524f4e0000000000000000000000000000000000000000000000000000000081525081526020016040518060400160405280600581526020017f504153455200000000000000000000000000000000000000000000000000000081525081526020016040518060400160405280600281526020017f505800000000000000000000000000000000000000000000000000000000000081525081526020016040518060400160405280600781526020017f556e6973776170000000000000000000000000000000000000000000000000008152508152506000906008620001f8929190620003a8565b506402540be4006002553480156200020f57600080fd5b5060005b600080549050811015620003a15760008082815481106200025d577f4e487b7100000000000000000000000000000000000000000000000000000000600052603260045260246000fd5b9060005260206000200160008381548110620002a2577f4e487b7100000000000000000000000000000000000000000000000000000000600052603260045260246000fd5b90600052602060002001604051620002ba906200040f565b620002c79291906200066b565b604051809103906000f080158015620002e4573d6000803e3d6000fd5b5090508060016000848154811062000325577f4e487b7100000000000000000000000000000000000000000000000000000000600052603260045260246000fd5b906000526020600020016040516200033e919062000652565b908152602001604051809103902060006101000a81548173ffffffffffffffffffffffffffffffffffffffff021916908373ffffffffffffffffffffffffffffffffffffffff160217905550508080620003989062000717565b91505062000213565b50620007c3565b828054828255906000526020600020908101928215620003fc579160200282015b82811115620003fb578251829080519060200190620003ea9291906200041d565b5091602001919060010190620003c9565b5b5090506200040b9190620004ae565b5090565b611823806200272e83390190565b8280546200042b90620006e1565b90600052602060002090601f0160209004810192826200044f57600085556200049b565b82601f106200046a57805160ff19168380011785556200049b565b828001600101855582156200049b579182015b828111156200049a5782518255916020019190600101906200047d565b5b509050620004aa9190620004d6565b5090565b5b80821115620004d25760008181620004c89190620004f5565b50600101620004af565b5090565b5b80821115620004f1576000816000905550600101620004d7565b5090565b5080546200050390620006e1565b6000825580601f1062000517575062000538565b601f016020900490600052602060002090810190620005379190620004d6565b5b50565b600081546200054a81620006e1565b620005568186620006bb565b945060018216600081146200057457600181146200058757620005be565b60ff1983168652602086019350620005be565b6200059285620006a6565b60005b83811015620005b65781548189015260018201915060208101905062000595565b808801955050505b50505092915050565b60008154620005d681620006e1565b620005e28186620006cc565b94506001821660008114620006005760018114620006125762000649565b60ff1983168652818601935062000649565b6200061d85620006a6565b60005b83811015620006415781548189015260018201915060208101905062000620565b838801955050505b50505092915050565b6000620006608284620005c7565b915081905092915050565b600060408201905081810360008301526200068781856200053b565b905081810360208301526200069d81846200053b565b90509392505050565b60008190508160005260206000209050919050565b600082825260208201905092915050565b600081905092915050565b6000819050919050565b60006002820490506001821680620006fa57607f821691505b6020821081141562000711576200071062000794565b5b50919050565b60006200072482620006d7565b91507fffffffffffffffffffffffffffffffffffffffffffffffffffffffffffffffff8214156200075a576200075962000765565b5b600182019050919050565b7f4e487b7100000000000000000000000000000000000000000000000000000000600052601160045260246000fd5b7f4e487b7100000000000000000000000000000000000000000000000000000000600052602260045260246000fd5b611f5b80620007d36000396000f3fe6080604052600436106100a75760003560e01c80636932cf81116100645780636932cf81146101ee57806389f4b3171461022b578063a93325ed14610268578063bf015aae146102a5578063db6f63ee146102ce578063f99be4711461030b576100a7565b806319b3c12d146100ac57806339c5891a146100d75780634f64b2be146101025780635463109e1461013f57806356564b7c1461017c57806363fcf7c5146101be575b600080fd5b3480156100b857600080fd5b506100c1610348565b6040516100ce9190611aad565b60405180910390f35b3480156100e357600080fd5b506100ec61034e565b6040516100f991906119ae565b60405180910390f35b34801561010e57600080fd5b506101296004803603810190610124919061155d565b61061e565b60405161013691906119eb565b60405180910390f35b34801561014b57600080fd5b50610166600480360381019061016191906113b4565b6106ca565b6040516101739190611aad565b60405180910390f35b34801561018857600080fd5b506101a3600480360381019061019e919061155d565b61078f565b6040516101b596959493929190611ac8565b60405180910390f35b6101d860048036038101906101d391906113b4565b6108fb565b6040516101e59190611aad565b60405180910390f35b3480156101fa57600080fd5b50610215600480360381019061021091906113b4565b610a81565b60405161022291906119eb565b60405180910390f35b34801561023757600080fd5b50610252600480360381019061024d9190611436565b610b4b565b60405161025f9190611aad565b60405180910390f35b34801561027457600080fd5b5061028f600480360381019061028a91906113b4565b610c1c565b60405161029c91906119d0565b60405180910390f35b3480156102b157600080fd5b506102cc60048036038101906102c7919061148a565b610c65565b005b3480156102da57600080fd5b506102f560048036038101906102f09190611509565b610e8c565b6040516103029190611aad565b60405180910390f35b34801561031757600080fd5b50610332600480360381019061032d9190611436565b61109f565b60405161033f9190611aad565b60405180910390f35b60035481565b6060600060035490506000808267ffffffffffffffff81111561039a577f4e487b7100000000000000000000000000000000000000000000000000000000600052604160045260246000fd5b6040519080825280602002602001820160405280156103d357816020015b6103c0611178565b8152602001906001900390816103b85790505b50905060005b838110156106145760006001826103f09190611c09565b90506000600460008381526020019081526020016000209050806040518060c00160405290816000820154815260200160018201805461042f90611d98565b80601f016020809104026020016040519081016040528092919081815260200182805461045b90611d98565b80156104a85780601f1061047d576101008083540402835291602001916104a8565b820191906000526020600020905b81548152906001019060200180831161048b57829003601f168201915b505050505081526020016002820180546104c190611d98565b80601f01602080910402602001604051908101604052809291908181526020018280546104ed90611d98565b801561053a5780601f1061050f5761010080835404028352916020019161053a565b820191906000526020600020905b81548152906001019060200180831161051d57829003601f168201915b5050505050815260200160038201548152602001600482015481526020016005820160009054906101000a900473ffffffffffffffffffffffffffffffffffffffff1673ffffffffffffffffffffffffffffffffffffffff1673ffffffffffffffffffffffffffffffffffffffff16815250508486815181106105e6577f4e487b7100000000000000000000000000000000000000000000000000000000600052603260045260246000fd5b602002602001018190525084806105fc90611dca565b9550505050808061060c90611dca565b9150506103d9565b5080935050505090565b6000818154811061062e57600080fd5b90600052602060002001600091509050805461064990611d98565b80601f016020809104026020016040519081016040528092919081815260200182805461067590611d98565b80156106c25780601f10610697576101008083540402835291602001916106c2565b820191906000526020600020905b8154815290600101906020018083116106a557829003601f168201915b505050505081565b60006001826040516106dc919061191c565b908152602001604051809103902060009054906101000a900473ffffffffffffffffffffffffffffffffffffffff1673ffffffffffffffffffffffffffffffffffffffff166318160ddd6040518163ffffffff1660e01b815260040160206040518083038186803b15801561075057600080fd5b505afa158015610764573d6000803e3d6000fd5b505050506040513d601f19601f820116820180604052508101906107889190611586565b9050919050565b60046020528060005260406000206000915090508060000154908060010180546107b890611d98565b80601f01602080910402602001604051908101604052809291908181526020018280546107e490611d98565b80156108315780601f1061080657610100808354040283529160200191610831565b820191906000526020600020905b81548152906001019060200180831161081457829003601f168201915b50505050509080600201805461084690611d98565b80601f016020809104026020016040519081016040528092919081815260200182805461087290611d98565b80156108bf5780601f10610894576101008083540402835291602001916108bf565b820191906000526020600020905b8154815290600101906020018083116108a257829003601f168201915b5050505050908060030154908060040154908060050160009054906101000a900473ffffffffffffffffffffffffffffffffffffffff16905086565b6000803490506000670de0b6b3a76400006002548361091a9190611c5f565b6109249190611c90565b9050600184604051610936919061191c565b908152602001604051809103902060009054906101000a900473ffffffffffffffffffffffffffffffffffffffff1673ffffffffffffffffffffffffffffffffffffffff1663a9059cbb33836040518363ffffffff1660e01b815260040161099f929190611985565b602060405180830381600087803b1580156109b957600080fd5b505af11580156109cd573d6000803e3d6000fd5b505050506040513d601f19601f820116820180604052508101906109f1919061138b565b610a30576040517f08c379a0000000000000000000000000000000000000000000000000000000008152600401610a2790611a2d565b60405180910390fd5b60006040518060400160405280600581526020017f45746865720000000000000000000000000000000000000000000000000000008152509050610a76818685856110aa565b819350505050919050565b6060600182604051610a93919061191c565b908152602001604051809103902060009054906101000a900473ffffffffffffffffffffffffffffffffffffffff1673ffffffffffffffffffffffffffffffffffffffff166306fdde036040518163ffffffff1660e01b815260040160006040518083038186803b158015610b0757600080fd5b505afa158015610b1b573d6000803e3d6000fd5b505050506040513d6000823e3d601f19601f82011682018060405250810190610b4491906113f5565b9050919050565b6000600183604051610b5d919061191c565b908152602001604051809103902060009054906101000a900473ffffffffffffffffffffffffffffffffffffffff1673ffffffffffffffffffffffffffffffffffffffff166370a08231836040518263ffffffff1660e01b8152600401610bc49190611933565b60206040518083038186803b158015610bdc57600080fd5b505afa158015610bf0573d6000803e3d6000fd5b505050506040513d601f19601f82011682018060405250810190610c149190611586565b905092915050565b6001818051602081018201805184825260208301602085012081835280955050505050506000915054906101000a900473ffffffffffffffffffffffffffffffffffffffff1681565b600183604051610c75919061191c565b908152602001604051809103902060009054906101000a900473ffffffffffffffffffffffffffffffffffffffff1673ffffffffffffffffffffffffffffffffffffffff166323b872dd3330846040518463ffffffff1660e01b8152600401610ce09392919061194e565b602060405180830381600087803b158015610cfa57600080fd5b505af1158015610d0e573d6000803e3d6000fd5b505050506040513d601f19601f82011682018060405250810190610d32919061138b565b610d71576040517f08c379a0000000000000000000000000000000000000000000000000000000008152600401610d6890611a0d565b60405180910390fd5b600182604051610d81919061191c565b908152602001604051809103902060009054906101000a900473ffffffffffffffffffffffffffffffffffffffff1673ffffffffffffffffffffffffffffffffffffffff1663a9059cbb33836040518363ffffffff1660e01b8152600401610dea929190611985565b602060405180830381600087803b158015610e0457600080fd5b505af1158015610e18573d6000803e3d6000fd5b505050506040513d601f19601f82011682018060405250810190610e3c919061138b565b610e7b576040517f08c379a0000000000000000000000000000000000000000000000000000000008152600401610e7290611a4d565b60405180910390fd5b610e87838383846110aa565b505050565b600080670de0b6b3a764000083610ea39190611c5f565b9050600060025482610eb59190611c90565b905080471015610efa576040517f08c379a0000000000000000000000000000000000000000000000000000000008152600401610ef190611a8d565b60405180910390fd5b3373ffffffffffffffffffffffffffffffffffffffff166108fc829081150290604051600060405180830381858888f19350505050158015610f40573d6000803e3d6000fd5b50600185604051610f51919061191c565b908152602001604051809103902060009054906101000a900473ffffffffffffffffffffffffffffffffffffffff1673ffffffffffffffffffffffffffffffffffffffff166323b872dd3330876040518463ffffffff1660e01b8152600401610fbc9392919061194e565b602060405180830381600087803b158015610fd657600080fd5b505af1158015610fea573d6000803e3d6000fd5b505050506040513d601f19601f8201168201806040525081019061100e919061138b565b61104d576040517f08c379a000000000000000000000000000000000000000000000000000000000815260040161104490611a6d565b60405180910390fd5b60006040518060400160405280600581526020017f45746865720000000000000000000000000000000000000000000000000000008152509050611093868287856110aa565b81935050505092915050565b600047905092915050565b600360008154809291906110bd90611dca565b9190505550600060035490506000600460008381526020019081526020016000209050818160000181905550858160010190805190602001906111019291906111c4565b508481600201908051906020019061111a9291906111c4565b50838160030181905550828160040181905550338160050160006101000a81548173ffffffffffffffffffffffffffffffffffffffff021916908373ffffffffffffffffffffffffffffffffffffffff160217905550505050505050565b6040518060c001604052806000815260200160608152602001606081526020016000815260200160008152602001600073ffffffffffffffffffffffffffffffffffffffff1681525090565b8280546111d090611d98565b90600052602060002090601f0160209004810192826111f25760008555611239565b82601f1061120b57805160ff1916838001178555611239565b82800160010185558215611239579182015b8281111561123857825182559160200191906001019061121d565b5b509050611246919061124a565b5090565b5b8082111561126357600081600090555060010161124b565b5090565b600061127a61127584611b68565b611b37565b90508281526020810184848401111561129257600080fd5b61129d848285611d56565b509392505050565b60006112b86112b384611b68565b611b37565b9050828152602081018484840111156112d057600080fd5b6112db848285611d65565b509392505050565b6000813590506112f281611ee0565b92915050565b60008151905061130781611ef7565b92915050565b600082601f83011261131e57600080fd5b813561132e848260208601611267565b91505092915050565b600082601f83011261134857600080fd5b81516113588482602086016112a5565b91505092915050565b60008135905061137081611f0e565b92915050565b60008151905061138581611f0e565b92915050565b60006020828403121561139d57600080fd5b60006113ab848285016112f8565b91505092915050565b6000602082840312156113c657600080fd5b600082013567ffffffffffffffff8111156113e057600080fd5b6113ec8482850161130d565b91505092915050565b60006020828403121561140757600080fd5b600082015167ffffffffffffffff81111561142157600080fd5b61142d84828501611337565b91505092915050565b6000806040838503121561144957600080fd5b600083013567ffffffffffffffff81111561146357600080fd5b61146f8582860161130d565b9250506020611480858286016112e3565b9150509250929050565b60008060006060848603121561149f57600080fd5b600084013567ffffffffffffffff8111156114b957600080fd5b6114c58682870161130d565b935050602084013567ffffffffffffffff8111156114e257600080fd5b6114ee8682870161130d565b92505060406114ff86828701611361565b9150509250925092565b6000806040838503121561151c57600080fd5b600083013567ffffffffffffffff81111561153657600080fd5b6115428582860161130d565b925050602061155385828601611361565b9150509250929050565b60006020828403121561156f57600080fd5b600061157d84828501611361565b91505092915050565b60006020828403121561159857600080fd5b60006115a684828501611376565b91505092915050565b60006115bb838361186e565b905092915050565b6115cc81611cea565b82525050565b6115db81611cea565b82525050565b60006115ec82611ba8565b6115f68185611bcb565b93508360208202850161160885611b98565b8060005b85811015611644578484038952815161162585826115af565b945061163083611bbe565b925060208a0199505060018101905061160c565b50829750879550505050505092915050565b61165f81611d32565b82525050565b600061167082611bb3565b61167a8185611bdc565b935061168a818560208601611d65565b61169381611ecf565b840191505092915050565b60006116a982611bb3565b6116b38185611bed565b93506116c3818560208601611d65565b6116cc81611ecf565b840191505092915050565b60006116e282611bb3565b6116ec8185611bfe565b93506116fc818560208601611d65565b80840191505092915050565b6000611715601c83611bed565b91507f536f7572636520746f6b656e207472616e73666572206661696c6564000000006000830152602082019050919050565b6000611755600f83611bed565b91507f5472616e73666572206661696c656400000000000000000000000000000000006000830152602082019050919050565b6000611795602183611bed565b91507f44657374696e6174696f6e20746f6b656e207472616e73666572206661696c6560008301527f64000000000000000000000000000000000000000000000000000000000000006020830152604082019050919050565b60006117fb601383611bed565b91507f5472616e7366657246726f6d206661696c6564000000000000000000000000006000830152602082019050919050565b600061183b601d83611bed565b91507f4445582069732072756e6e696e67206c6f77206f6e2062616c616e63650000006000830152602082019050919050565b600060c08301600083015161188660008601826118fe565b506020830151848203602086015261189e8282611665565b915050604083015184820360408601526118b88282611665565b91505060608301516118cd60608601826118fe565b5060808301516118e060808601826118fe565b5060a08301516118f360a08601826115c3565b508091505092915050565b61190781611d28565b82525050565b61191681611d28565b82525050565b600061192882846116d7565b915081905092915050565b600060208201905061194860008301846115d2565b92915050565b600060608201905061196360008301866115d2565b61197060208301856115d2565b61197d604083018461190d565b949350505050565b600060408201905061199a60008301856115d2565b6119a7602083018461190d565b9392505050565b600060208201905081810360008301526119c881846115e1565b905092915050565b60006020820190506119e56000830184611656565b92915050565b60006020820190508181036000830152611a05818461169e565b905092915050565b60006020820190508181036000830152611a2681611708565b9050919050565b60006020820190508181036000830152611a4681611748565b9050919050565b60006020820190508181036000830152611a6681611788565b9050919050565b60006020820190508181036000830152611a86816117ee565b9050919050565b60006020820190508181036000830152611aa68161182e565b9050919050565b6000602082019050611ac2600083018461190d565b92915050565b600060c082019050611add600083018961190d565b8181036020830152611aef818861169e565b90508181036040830152611b03818761169e565b9050611b12606083018661190d565b611b1f608083018561190d565b611b2c60a08301846115d2565b979650505050505050565b6000604051905081810181811067ffffffffffffffff82111715611b5e57611b5d611ea0565b5b8060405250919050565b600067ffffffffffffffff821115611b8357611b82611ea0565b5b601f19601f8301169050602081019050919050565b6000819050602082019050919050565b600081519050919050565b600081519050919050565b6000602082019050919050565b600082825260208201905092915050565b600082825260208201905092915050565b600082825260208201905092915050565b600081905092915050565b6000611c1482611d28565b9150611c1f83611d28565b9250827fffffffffffffffffffffffffffffffffffffffffffffffffffffffffffffffff03821115611c5457611c53611e13565b5b828201905092915050565b6000611c6a82611d28565b9150611c7583611d28565b925082611c8557611c84611e42565b5b828204905092915050565b6000611c9b82611d28565b9150611ca683611d28565b9250817fffffffffffffffffffffffffffffffffffffffffffffffffffffffffffffffff0483118215151615611cdf57611cde611e13565b5b828202905092915050565b6000611cf582611d08565b9050919050565b60008115159050919050565b600073ffffffffffffffffffffffffffffffffffffffff82169050919050565b6000819050919050565b6000611d3d82611d44565b9050919050565b6000611d4f82611d08565b9050919050565b82818337600083830152505050565b60005b83811015611d83578082015181840152602081019050611d68565b83811115611d92576000848401525b50505050565b60006002820490506001821680611db057607f821691505b60208210811415611dc457611dc3611e71565b5b50919050565b6000611dd582611d28565b91507fffffffffffffffffffffffffffffffffffffffffffffffffffffffffffffffff821415611e0857611e07611e13565b5b600182019050919050565b7f4e487b7100000000000000000000000000000000000000000000000000000000600052601160045260246000fd5b7f4e487b7100000000000000000000000000000000000000000000000000000000600052601260045260246000fd5b7f4e487b7100000000000000000000000000000000000000000000000000000000600052602260045260246000fd5b7f4e487b7100000000000000000000000000000000000000000000000000000000600052604160045260246000fd5b6000601f19601f8301169050919050565b611ee981611cea565b8114611ef457600080fd5b50565b611f0081611cfc565b8114611f0b57600080fd5b50565b611f1781611d28565b8114611f2257600080fd5b5056fea264697066735822122045171b99f5d471df840a4b44928565d0b2a857bdae3bb9e46fbf6737603ab49064736f6c6343000800003360806040523480156200001157600080fd5b506040516200182338038062001823833981810160405281019062000037919062000337565b818181600390805190602001906200005192919062000215565b5080600490805190602001906200006a92919062000215565b5050506200008a336a084595161401484a0000006200009260201b60201c565b505062000614565b600073ffffffffffffffffffffffffffffffffffffffff168273ffffffffffffffffffffffffffffffffffffffff16141562000105576040517f08c379a0000000000000000000000000000000000000000000000000000000008152600401620000fc90620003fd565b60405180910390fd5b62000119600083836200020b60201b60201c565b80600260008282546200012d9190620004b4565b92505081905550806000808473ffffffffffffffffffffffffffffffffffffffff1673ffffffffffffffffffffffffffffffffffffffff1681526020019081526020016000206000828254620001849190620004b4565b925050819055508173ffffffffffffffffffffffffffffffffffffffff16600073ffffffffffffffffffffffffffffffffffffffff167fddf252ad1be2c89b69c2b068fc378daa952ba7f163c4a11628f55a4df523b3ef83604051620001eb91906200041f565b60405180910390a362000207600083836200021060201b60201c565b5050565b505050565b505050565b828054620002239062000551565b90600052602060002090601f01602090048101928262000247576000855562000293565b82601f106200026257805160ff191683800117855562000293565b8280016001018555821562000293579182015b828111156200029257825182559160200191906001019062000275565b5b509050620002a29190620002a6565b5090565b5b80821115620002c1576000816000905550600101620002a7565b5090565b6000620002dc620002d68462000470565b6200043c565b905082815260208101848484011115620002f557600080fd5b620003028482856200051b565b509392505050565b600082601f8301126200031c57600080fd5b81516200032e848260208601620002c5565b91505092915050565b600080604083850312156200034b57600080fd5b600083015167ffffffffffffffff8111156200036657600080fd5b62000374858286016200030a565b925050602083015167ffffffffffffffff8111156200039257600080fd5b620003a0858286016200030a565b9150509250929050565b6000620003b9601f83620004a3565b91507f45524332303a206d696e7420746f20746865207a65726f2061646472657373006000830152602082019050919050565b620003f78162000511565b82525050565b600060208201905081810360008301526200041881620003aa565b9050919050565b6000602082019050620004366000830184620003ec565b92915050565b6000604051905081810181811067ffffffffffffffff82111715620004665762000465620005e5565b5b8060405250919050565b600067ffffffffffffffff8211156200048e576200048d620005e5565b5b601f19601f8301169050602081019050919050565b600082825260208201905092915050565b6000620004c18262000511565b9150620004ce8362000511565b9250827fffffffffffffffffffffffffffffffffffffffffffffffffffffffffffffffff0382111562000506576200050562000587565b5b828201905092915050565b6000819050919050565b60005b838110156200053b5780820151818401526020810190506200051e565b838111156200054b576000848401525b50505050565b600060028204905060018216806200056a57607f821691505b60208210811415620005815762000580620005b6565b5b50919050565b7f4e487b7100000000000000000000000000000000000000000000000000000000600052601160045260246000fd5b7f4e487b7100000000000000000000000000000000000000000000000000000000600052602260045260246000fd5b7f4e487b7100000000000000000000000000000000000000000000000000000000600052604160045260246000fd5b6111ff80620006246000396000f3fe608060405234801561001057600080fd5b50600436106100a95760003560e01c80633950935111610071578063395093511461016857806370a082311461019857806395d89b41146101c8578063a457c2d7146101e6578063a9059cbb14610216578063dd62ed3e14610246576100a9565b806306fdde03146100ae578063095ea7b3146100cc57806318160ddd146100fc57806323b872dd1461011a578063313ce5671461014a575b600080fd5b6100b6610276565b6040516100c39190610ec8565b60405180910390f35b6100e660048036038101906100e19190610b67565b610308565b6040516100f39190610ead565b60405180910390f35b61010461032b565b6040516101119190610fca565b60405180910390f35b610134600480360381019061012f9190610b18565b610335565b6040516101419190610ead565b60405180910390f35b610152610364565b60405161015f9190610fe5565b60405180910390f35b610182600480360381019061017d9190610b67565b61036d565b60405161018f9190610ead565b60405180910390f35b6101b260048036038101906101ad9190610ab3565b6103a4565b6040516101bf9190610fca565b60405180910390f35b6101d06103ec565b6040516101dd9190610ec8565b60405180910390f35b61020060048036038101906101fb9190610b67565b61047e565b60405161020d9190610ead565b60405180910390f35b610230600480360381019061022b9190610b67565b6104f5565b60405161023d9190610ead565b60405180910390f35b610260600480360381019061025b9190610adc565b610518565b60405161026d9190610fca565b60405180910390f35b606060038054610285906110fa565b80601f01602080910402602001604051908101604052809291908181526020018280546102b1906110fa565b80156102fe5780601f106102d3576101008083540402835291602001916102fe565b820191906000526020600020905b8154815290600101906020018083116102e157829003601f168201915b5050505050905090565b60008061031361059f565b90506103208185856105a7565b600191505092915050565b6000600254905090565b60008061034061059f565b905061034d858285610772565b6103588585856107fe565b60019150509392505050565b60006012905090565b60008061037861059f565b905061039981858561038a8589610518565b610394919061101c565b6105a7565b600191505092915050565b60008060008373ffffffffffffffffffffffffffffffffffffffff1673ffffffffffffffffffffffffffffffffffffffff168152602001908152602001600020549050919050565b6060600480546103fb906110fa565b80601f0160208091040260200160405190810160405280929190818152602001828054610427906110fa565b80156104745780601f1061044957610100808354040283529160200191610474565b820191906000526020600020905b81548152906001019060200180831161045757829003601f168201915b5050505050905090565b60008061048961059f565b905060006104978286610518565b9050838110156104dc576040517f08c379a00000000000000000000000000000000000000000000000000000000081526004016104d390610faa565b60405180910390fd5b6104e982868684036105a7565b60019250505092915050565b60008061050061059f565b905061050d8185856107fe565b600191505092915050565b6000600160008473ffffffffffffffffffffffffffffffffffffffff1673ffffffffffffffffffffffffffffffffffffffff16815260200190815260200160002060008373ffffffffffffffffffffffffffffffffffffffff1673ffffffffffffffffffffffffffffffffffffffff16815260200190815260200160002054905092915050565b600033905090565b600073ffffffffffffffffffffffffffffffffffffffff168373ffffffffffffffffffffffffffffffffffffffff161415610617576040517f08c379a000000000000000000000000000000000000000000000000000000000815260040161060e90610f8a565b60405180910390fd5b600073ffffffffffffffffffffffffffffffffffffffff168273ffffffffffffffffffffffffffffffffffffffff161415610687576040517f08c379a000000000000000000000000000000000000000000000000000000000815260040161067e90610f0a565b60405180910390fd5b80600160008573ffffffffffffffffffffffffffffffffffffffff1673ffffffffffffffffffffffffffffffffffffffff16815260200190815260200160002060008473ffffffffffffffffffffffffffffffffffffffff1673ffffffffffffffffffffffffffffffffffffffff168152602001908152602001600020819055508173ffffffffffffffffffffffffffffffffffffffff168373ffffffffffffffffffffffffffffffffffffffff167f8c5be1e5ebec7d5bd14f71427d1e84f3dd0314c0f7b2291e5b200ac8c7c3b925836040516107659190610fca565b60405180910390a3505050565b600061077e8484610518565b90507fffffffffffffffffffffffffffffffffffffffffffffffffffffffffffffffff81146107f857818110156107ea576040517f08c379a00000000000000000000000000000000000000000000000000000000081526004016107e190610f2a565b60405180910390fd5b6107f784848484036105a7565b5b50505050565b600073ffffffffffffffffffffffffffffffffffffffff168373ffffffffffffffffffffffffffffffffffffffff16141561086e576040517f08c379a000000000000000000000000000000000000000000000000000000000815260040161086590610f6a565b60405180910390fd5b600073ffffffffffffffffffffffffffffffffffffffff168273ffffffffffffffffffffffffffffffffffffffff1614156108de576040517f08c379a00000000000000000000000000000000000000000000000000000000081526004016108d590610eea565b60405180910390fd5b6108e9838383610a7f565b60008060008573ffffffffffffffffffffffffffffffffffffffff1673ffffffffffffffffffffffffffffffffffffffff1681526020019081526020016000205490508181101561096f576040517f08c379a000000000000000000000000000000000000000000000000000000000815260040161096690610f4a565b60405180910390fd5b8181036000808673ffffffffffffffffffffffffffffffffffffffff1673ffffffffffffffffffffffffffffffffffffffff16815260200190815260200160002081905550816000808573ffffffffffffffffffffffffffffffffffffffff1673ffffffffffffffffffffffffffffffffffffffff1681526020019081526020016000206000828254610a02919061101c565b925050819055508273ffffffffffffffffffffffffffffffffffffffff168473ffffffffffffffffffffffffffffffffffffffff167fddf252ad1be2c89b69c2b068fc378daa952ba7f163c4a11628f55a4df523b3ef84604051610a669190610fca565b60405180910390a3610a79848484610a84565b50505050565b505050565b505050565b600081359050610a988161119b565b92915050565b600081359050610aad816111b2565b92915050565b600060208284031215610ac557600080fd5b6000610ad384828501610a89565b91505092915050565b60008060408385031215610aef57600080fd5b6000610afd85828601610a89565b9250506020610b0e85828601610a89565b9150509250929050565b600080600060608486031215610b2d57600080fd5b6000610b3b86828701610a89565b9350506020610b4c86828701610a89565b9250506040610b5d86828701610a9e565b9150509250925092565b60008060408385031215610b7a57600080fd5b6000610b8885828601610a89565b9250506020610b9985828601610a9e565b9150509250929050565b610bac81611084565b82525050565b6000610bbd82611000565b610bc7818561100b565b9350610bd78185602086016110c7565b610be08161118a565b840191505092915050565b6000610bf860238361100b565b91507f45524332303a207472616e7366657220746f20746865207a65726f206164647260008301527f65737300000000000000000000000000000000000000000000000000000000006020830152604082019050919050565b6000610c5e60228361100b565b91507f45524332303a20617070726f766520746f20746865207a65726f20616464726560008301527f73730000000000000000000000000000000000000000000000000000000000006020830152604082019050919050565b6000610cc4601d8361100b565b91507f45524332303a20696e73756666696369656e7420616c6c6f77616e63650000006000830152602082019050919050565b6000610d0460268361100b565b91507f45524332303a207472616e7366657220616d6f756e742065786365656473206260008301527f616c616e636500000000000000000000000000000000000000000000000000006020830152604082019050919050565b6000610d6a60258361100b565b91507f45524332303a207472616e736665722066726f6d20746865207a65726f20616460008301527f64726573730000000000000000000000000000000000000000000000000000006020830152604082019050919050565b6000610dd060248361100b565b91507f45524332303a20617070726f76652066726f6d20746865207a65726f2061646460008301527f72657373000000000000000000000000000000000000000000000000000000006020830152604082019050919050565b6000610e3660258361100b565b91507f45524332303a2064656372656173656420616c6c6f77616e63652062656c6f7760008301527f207a65726f0000000000000000000000000000000000000000000000000000006020830152604082019050919050565b610e98816110b0565b82525050565b610ea7816110ba565b82525050565b6000602082019050610ec26000830184610ba3565b92915050565b60006020820190508181036000830152610ee28184610bb2565b905092915050565b60006020820190508181036000830152610f0381610beb565b9050919050565b60006020820190508181036000830152610f2381610c51565b9050919050565b60006020820190508181036000830152610f4381610cb7565b9050919050565b60006020820190508181036000830152610f6381610cf7565b9050919050565b60006020820190508181036000830152610f8381610d5d565b9050919050565b60006020820190508181036000830152610fa381610dc3565b9050919050565b60006020820190508181036000830152610fc381610e29565b9050919050565b6000602082019050610fdf6000830184610e8f565b92915050565b6000602082019050610ffa6000830184610e9e565b92915050565b600081519050919050565b600082825260208201905092915050565b6000611027826110b0565b9150611032836110b0565b9250827fffffffffffffffffffffffffffffffffffffffffffffffffffffffffffffffff038211156110675761106661112c565b5b828201905092915050565b600061107d82611090565b9050919050565b60008115159050919050565b600073ffffffffffffffffffffffffffffffffffffffff82169050919050565b6000819050919050565b600060ff82169050919050565b60005b838110156110e55780820151818401526020810190506110ca565b838111156110f4576000848401525b50505050565b6000600282049050600182168061111257607f821691505b602082108114156111265761112561115b565b5b50919050565b7f4e487b7100000000000000000000000000000000000000000000000000000000600052601160045260246000fd5b7f4e487b7100000000000000000000000000000000000000000000000000000000600052602260045260246000fd5b6000601f19601f8301169050919050565b6111a481611072565b81146111af57600080fd5b50565b6111bb816110b0565b81146111c657600080fd5b5056fea2646970667358221220c0c2059000a38122b980ebf55366151cbbb25dd042067b4a3eee028d83b41b2e64736f6c63430008000033",
  "linkReferences": {},
  "deployedLinkReferences": {}
}